{
  "contractName": "dBank",
  "abi": [
    {
      "inputs": [],
      "stateMutability": "nonpayable",
      "type": "constructor"
    },
    {
      "inputs": [],
      "name": "deposit",
      "outputs": [],
      "stateMutability": "payable",
      "type": "function"
    },
    {
      "inputs": [],
      "name": "withdraw",
      "outputs": [],
      "stateMutability": "nonpayable",
      "type": "function"
    },
    {
      "inputs": [],
      "name": "borrow",
      "outputs": [],
      "stateMutability": "payable",
      "type": "function"
    },
    {
      "inputs": [],
      "name": "payOff",
      "outputs": [],
      "stateMutability": "nonpayable",
      "type": "function"
    }
  ],
  "bytecode": "0x608060405234801561001057600080fd5b5060b58061001f6000396000f3fe608060405260043610603a5760003560e01c80633ccfd60b14603f5780633fac68d5146053578063d0e30db0146067578063e68d356914606f575b600080fd5b348015604a57600080fd5b5060516077565b005b348015605e57600080fd5b5060656079565b005b606d607b565b005b6075607d565b005b565b565b565b56fea2646970667358221220f055eaa1f88531739f51d25e804a745aa7fc581b7b97da5cfbf33fa72a94929c64736f6c63430007060033",
  "immutableReferences": {},
  "source": "// SPDX-License-Identifier: MIT\r\npragma solidity >=0.6.0 <0.8.0;\r\n\r\nimport \"./Token.sol\";\r\n\r\ncontract dBank {\r\n\r\n  //assign Token contract to variable\r\n\r\n  //add mappings\r\n\r\n  //add events\r\n\r\n  //pass as constructor argument deployed Token contract\r\n  constructor() public {\r\n    //assign token deployed contract to variable\r\n  }\r\n\r\n  function deposit() payable public {\r\n    //check if msg.sender didn't already deposited funds\r\n    //check if msg.value is >= than 0.01 ETH\r\n\r\n    //increase msg.sender ether deposit balance\r\n    //start msg.sender hodling time\r\n\r\n    //set msg.sender deposit status to true\r\n    //emit Deposit event\r\n  }\r\n\r\n  function withdraw() public {\r\n    //check if msg.sender deposit status is true\r\n    //assign msg.sender ether deposit balance to variable for event\r\n\r\n    //check user's hodl time\r\n\r\n    //calc interest per second\r\n    //calc accrued interest\r\n\r\n    //send eth to user\r\n    //send interest in tokens to user\r\n\r\n    //reset depositer data\r\n\r\n    //emit event\r\n  }\r\n\r\n  function borrow() payable public {\r\n    //check if collateral is >= than 0.01 ETH\r\n    //check if user doesn't have active loan\r\n\r\n    //add msg.value to ether collateral\r\n\r\n    //calc tokens amount to mint, 50% of msg.value\r\n\r\n    //mint&send tokens to user\r\n\r\n    //activate borrower's loan status\r\n\r\n    //emit event\r\n  }\r\n\r\n  function payOff() public {\r\n    //check if loan is active\r\n    //transfer tokens from user back to the contract\r\n\r\n    //calc fee\r\n\r\n    //send user's collateral minus fee\r\n\r\n    //reset borrower's data\r\n\r\n    //emit event\r\n  }\r\n}",
  "sourcePath": "C:/Users/Brandon/Documents/dev/dbank/src/contracts/dBank.sol",
  "compiler": {
    "name": "solc",
    "version": "0.7.6+commit.7338295f.Emscripten.clang"
  },
  "schemaVersion": "3.2.3",
  "updatedAt": "2021-04-21T19:36:02.573Z",
  "devdoc": {
    "kind": "dev",
    "methods": {},
    "version": 1
  },
  "userdoc": {
    "kind": "user",
    "methods": {},
    "version": 1
  }
}